S010000069326320746573742E7372656336
S11300000C9434000C9449000C9449000C9449005D
S11300100C9449000C9449000C9449000C94490038
S11300200C9449000C9449000C9449000C94490028
S11300300C9449000C9449000C9449000C94490018
S11300400C9449000C9449000C9449000C94490008
S11300500C9449000C9449000C9449000C944900F8
S11300600C9449000C94490011241FBECFEFD8E032
S1130070DEBFCDBF11E0A0E0B1E0E6E0F2E002C0F7
S113008005900D92A630B107D9F70E94F5000C94A3
S113009001010C94000084EA8093BC008091BC00B0
S11300A08823E4F78091B900887F883051F08091EB
S11300B0B900887F803141F08091B900887F90E059
S11300C0089580E090E0089580E090E0089584E948
S11300D08093BC0008958093BB0084E88093BC00A7
S11300E08091BC008823E4F78091B900887F88312F
S11300F051F08091B900887F803441F08091B9003B
S1130100887F90E0089580E090E0089580E090E09A
S113011008958093BB0084E88093BC008091BC0068
S11301208823E4F78091B900887F883229F0809190
S1130130B900887F90E0089580E090E0089597B139
S1130140906397B9662321F098B1906398B903C07E
S113015098B19F7C98B997B19F7C97B9813041F051
S113016018F0823049F0089588E48093B800089527
S113017088E18093B80008958CE08093B8000895D6
S1130180EF92FF920F931F93CF93DF93C82F7B01BE
S1130190142F022F0E944B00009701F58C2F880F1B
S11301A00E946B000097D1F4C0E0D0E009C0F701D1
S11301B0EC0FFD1F80810E948900009779F421963D
S11301C0812F90E0C817D90794F3011105C00E944C
S11301D0670080E090E002C080E090E0DF91CF9182
S11301E01F910F91FF90EF90089560E080E00E94CE
S11301F09F0021E045E060E071E089E60E94C000D4
S1090200F8CFF894FFCFD3
S109020668656C6C6F00DA
S9030000FC
